{
  "contractName": "FarmLend",
  "abi": [
    {
      "inputs": [],
      "payable": true,
      "stateMutability": "payable",
      "type": "constructor"
    },
    {
      "anonymous": false,
      "inputs": [
        {
          "indexed": false,
          "internalType": "address",
          "name": "",
          "type": "address"
        },
        {
          "indexed": false,
          "internalType": "uint256",
          "name": "",
          "type": "uint256"
        }
      ],
      "name": "Foundlender",
      "type": "event"
    },
    {
      "constant": true,
      "inputs": [
        {
          "internalType": "uint256",
          "name": "",
          "type": "uint256"
        }
      ],
      "name": "lenderAccounts",
      "outputs": [
        {
          "internalType": "address",
          "name": "",
          "type": "address"
        }
      ],
      "payable": false,
      "stateMutability": "view",
      "type": "function"
    },
    {
      "constant": true,
      "inputs": [
        {
          "internalType": "uint256",
          "name": "",
          "type": "uint256"
        }
      ],
      "name": "loanProposals",
      "outputs": [
        {
          "internalType": "address",
          "name": "",
          "type": "address"
        }
      ],
      "payable": false,
      "stateMutability": "view",
      "type": "function"
    },
    {
      "constant": true,
      "inputs": [
        {
          "internalType": "address",
          "name": "",
          "type": "address"
        }
      ],
      "name": "registeredLenders",
      "outputs": [
        {
          "internalType": "address payable",
          "name": "lenderAddress",
          "type": "address"
        },
        {
          "internalType": "enum FarmLend.LenderState",
          "name": "lenderState",
          "type": "uint8"
        },
        {
          "internalType": "uint256",
          "name": "interestOffered",
          "type": "uint256"
        },
        {
          "internalType": "uint256",
          "name": "depositAmount",
          "type": "uint256"
        }
      ],
      "payable": false,
      "stateMutability": "view",
      "type": "function"
    },
    {
      "constant": true,
      "inputs": [
        {
          "internalType": "address",
          "name": "",
          "type": "address"
        }
      ],
      "name": "registeredProposals",
      "outputs": [
        {
          "internalType": "address payable",
          "name": "farmerAddress",
          "type": "address"
        },
        {
          "internalType": "uint256",
          "name": "amountRequested",
          "type": "uint256"
        },
        {
          "internalType": "uint256",
          "name": "loanAmountFulfilled",
          "type": "uint256"
        },
        {
          "internalType": "uint256",
          "name": "maxInterestRate",
          "type": "uint256"
        },
        {
          "internalType": "uint256",
          "name": "dueDateYear",
          "type": "uint256"
        },
        {
          "internalType": "uint256",
          "name": "dueDateMonth",
          "type": "uint256"
        },
        {
          "internalType": "uint256",
          "name": "dueDateDay",
          "type": "uint256"
        },
        {
          "internalType": "uint256",
          "name": "splitNum",
          "type": "uint256"
        },
        {
          "internalType": "enum FarmLend.PaymentFreq",
          "name": "paymentFreq",
          "type": "uint8"
        },
        {
          "internalType": "enum FarmLend.LoanState",
          "name": "loanState",
          "type": "uint8"
        }
      ],
      "payable": false,
      "stateMutability": "view",
      "type": "function"
    },
    {
      "constant": false,
      "inputs": [
        {
          "internalType": "uint256",
          "name": "_amountRequested",
          "type": "uint256"
        },
        {
          "internalType": "uint256",
          "name": "_dueDateDay",
          "type": "uint256"
        },
        {
          "internalType": "uint256",
          "name": "_dueDateMonth",
          "type": "uint256"
        },
        {
          "internalType": "uint256",
          "name": "_dueDateYear",
          "type": "uint256"
        },
        {
          "internalType": "uint256",
          "name": "_maxInterestRate",
          "type": "uint256"
        },
        {
          "internalType": "uint256",
          "name": "_splitNum",
          "type": "uint256"
        },
        {
          "internalType": "uint256",
          "name": "_paymentFreq",
          "type": "uint256"
        }
      ],
      "name": "registerFarmerLoanProposal",
      "outputs": [
        {
          "internalType": "bool",
          "name": "",
          "type": "bool"
        }
      ],
      "payable": false,
      "stateMutability": "nonpayable",
      "type": "function"
    },
    {
      "constant": false,
      "inputs": [
        {
          "internalType": "uint256",
          "name": "_interestRate",
          "type": "uint256"
        },
        {
          "internalType": "uint256",
          "name": "_depositAmount",
          "type": "uint256"
        }
      ],
      "name": "registerLender",
      "outputs": [
        {
          "internalType": "bool",
          "name": "",
          "type": "bool"
        }
      ],
      "payable": false,
      "stateMutability": "nonpayable",
      "type": "function"
    },
    {
      "constant": false,
      "inputs": [
        {
          "internalType": "address",
          "name": "_farmerAddress",
          "type": "address"
        },
        {
          "internalType": "bool",
          "name": "approval",
          "type": "bool"
        },
        {
          "internalType": "uint256",
          "name": "_amount",
          "type": "uint256"
        }
      ],
      "name": "approveLoan",
      "outputs": [],
      "payable": false,
      "stateMutability": "nonpayable",
      "type": "function"
    },
    {
      "constant": true,
      "inputs": [],
      "name": "getNumProposals",
      "outputs": [
        {
          "internalType": "address[]",
          "name": "",
          "type": "address[]"
        }
      ],
      "payable": false,
      "stateMutability": "view",
      "type": "function"
    }
  ],
  "bytecode": "0x608060405273b117eaa9d7d94cc9e54a85f10c13c8cf34a527816000806101000a81548173ffffffffffffffffffffffffffffffffffffffff021916908373ffffffffffffffffffffffffffffffffffffffff1602179055506111c7806100676000396000f3fe608060405234801561001057600080fd5b50600436106100885760003560e01c806399c8a1ba1161005b57806399c8a1ba1461025b578063a59934e2146102c9578063c44b092c146103a8578063cd8c1a6b1461042a57610088565b80634ef8bea21461008d578063631eb1cd146100fb578063722d774b146101a2578063798974dd146101fc575b600080fd5b6100b9600480360360208110156100a357600080fd5b810190808035906020019092919050505061047a565b604051808273ffffffffffffffffffffffffffffffffffffffff1673ffffffffffffffffffffffffffffffffffffffff16815260200191505060405180910390f35b61013d6004803603602081101561011157600080fd5b81019080803573ffffffffffffffffffffffffffffffffffffffff1690602001909291905050506104b6565b604051808573ffffffffffffffffffffffffffffffffffffffff1673ffffffffffffffffffffffffffffffffffffffff16815260200184600281111561017f57fe5b60ff16815260200183815260200182815260200194505050505060405180910390f35b6101fa600480360360608110156101b857600080fd5b81019080803573ffffffffffffffffffffffffffffffffffffffff16906020019092919080351515906020019092919080359060200190929190505050610513565b005b610204610934565b6040518080602001828103825283818151815260200191508051906020019060200280838360005b8381101561024757808201518184015260208101905061022c565b505050509050019250505060405180910390f35b6102876004803603602081101561027157600080fd5b81019080803590602001909291905050506109c2565b604051808273ffffffffffffffffffffffffffffffffffffffff1673ffffffffffffffffffffffffffffffffffffffff16815260200191505060405180910390f35b61030b600480360360208110156102df57600080fd5b81019080803573ffffffffffffffffffffffffffffffffffffffff1690602001909291905050506109fe565b604051808b73ffffffffffffffffffffffffffffffffffffffff1673ffffffffffffffffffffffffffffffffffffffff1681526020018a815260200189815260200188815260200187815260200186815260200185815260200184815260200183600281111561037757fe5b60ff16815260200182600481111561038b57fe5b60ff1681526020019a505050505050505050505060405180910390f35b610410600480360360e08110156103be57600080fd5b8101908080359060200190929190803590602001909291908035906020019092919080359060200190929190803590602001909291908035906020019092919080359060200190929190505050610a8c565b604051808215151515815260200191505060405180910390f35b6104606004803603604081101561044057600080fd5b810190808035906020019092919080359060200190929190505050610db4565b604051808215151515815260200191505060405180910390f35b6002818154811061048757fe5b906000526020600020016000915054906101000a900473ffffffffffffffffffffffffffffffffffffffff1681565b60036020528060005260406000206000915090508060000160009054906101000a900473ffffffffffffffffffffffffffffffffffffffff16908060000160149054906101000a900460ff16908060010154908060020154905084565b61051b6110ca565b600160008573ffffffffffffffffffffffffffffffffffffffff1673ffffffffffffffffffffffffffffffffffffffff168152602001908152602001600020604051806101400160405290816000820160009054906101000a900473ffffffffffffffffffffffffffffffffffffffff1673ffffffffffffffffffffffffffffffffffffffff1673ffffffffffffffffffffffffffffffffffffffff168152602001600182015481526020016002820154815260200160038201548152602001600482015481526020016005820154815260200160068201548152602001600782015481526020016009820160009054906101000a900460ff16600281111561062057fe5b600281111561062b57fe5b81526020016009820160019054906101000a900460ff16600481111561064d57fe5b600481111561065857fe5b815250509050610666611149565b600360003373ffffffffffffffffffffffffffffffffffffffff1673ffffffffffffffffffffffffffffffffffffffff1681526020019081526020016000206040518060800160405290816000820160009054906101000a900473ffffffffffffffffffffffffffffffffffffffff1673ffffffffffffffffffffffffffffffffffffffff1673ffffffffffffffffffffffffffffffffffffffff1681526020016000820160149054906101000a900460ff16600281111561072457fe5b600281111561072f57fe5b81526020016001820154815260200160028201548152505090507f6236e05d511b6fca897755c658ab5f56398cb56c518e1d63aef64e5f2da06d29338260600151604051808373ffffffffffffffffffffffffffffffffffffffff1673ffffffffffffffffffffffffffffffffffffffff1681526020018281526020019250505060405180910390a160011515841515141561090857600182610120019060048111156107d857fe5b908160048111156107e557fe5b815250508281606001510381606001818152505060018160200190600281111561080b57fe5b9081600281111561081857fe5b8152505060008090505b6002805490508110156108e2578573ffffffffffffffffffffffffffffffffffffffff166002828154811061085357fe5b9060005260206000200160009054906101000a900473ffffffffffffffffffffffffffffffffffffffff1673ffffffffffffffffffffffffffffffffffffffff1614156108d557600281815481106108a757fe5b9060005260206000200160006101000a81549073ffffffffffffffffffffffffffffffffffffffff02191690555b8080600101915050610822565b5061090285338584604001518660c001518760a001518860800151610f85565b5061092d565b6000826101200190600481111561091b57fe5b9081600481111561092857fe5b815250505b5050505050565b606060028054806020026020016040519081016040528092919081815260200182805480156109b857602002820191906000526020600020905b8160009054906101000a900473ffffffffffffffffffffffffffffffffffffffff1673ffffffffffffffffffffffffffffffffffffffff168152602001906001019080831161096e575b5050505050905090565b600481815481106109cf57fe5b906000526020600020016000915054906101000a900473ffffffffffffffffffffffffffffffffffffffff1681565b60016020528060005260406000206000915090508060000160009054906101000a900473ffffffffffffffffffffffffffffffffffffffff16908060010154908060020154908060030154908060040154908060050154908060060154908060070154908060090160009054906101000a900460ff16908060090160019054906101000a900460ff1690508a565b6000610a966110ca565b600160003373ffffffffffffffffffffffffffffffffffffffff1673ffffffffffffffffffffffffffffffffffffffff168152602001908152602001600020604051806101400160405290816000820160009054906101000a900473ffffffffffffffffffffffffffffffffffffffff1673ffffffffffffffffffffffffffffffffffffffff1673ffffffffffffffffffffffffffffffffffffffff168152602001600182015481526020016002820154815260200160038201548152602001600482015481526020016005820154815260200160068201548152602001600782015481526020016009820160009054906101000a900460ff166002811115610b9b57fe5b6002811115610ba657fe5b81526020016009820160019054906101000a900460ff166004811115610bc857fe5b6004811115610bd357fe5b81525050905033816000019073ffffffffffffffffffffffffffffffffffffffff16908173ffffffffffffffffffffffffffffffffffffffff16815250508881602001818152505060008161012001906004811115610c2e57fe5b90816004811115610c3b57fe5b81525050878160c0018181525050868160a00181815250508581608001818152505060008160400181815250506000851415610c81576005816060018181525050610c8c565b848160600181815250505b6000841415610ca55760028160e0018181525050610cb0565b838160e00181815250505b6001831415610ce25760008161010001906002811115610ccc57fe5b90816002811115610cd957fe5b81525050610d3a565b6002831415610d145760018161010001906002811115610cfe57fe5b90816002811115610d0b57fe5b81525050610d39565b60028161010001906002811115610d2757fe5b90816002811115610d3457fe5b815250505b5b6002816000015190806001815401808255809150509060018203906000526020600020016000909192909190916101000a81548173ffffffffffffffffffffffffffffffffffffffff021916908373ffffffffffffffffffffffffffffffffffffffff160217905550506001915050979650505050505050565b6000610dbe611149565b600360003373ffffffffffffffffffffffffffffffffffffffff1673ffffffffffffffffffffffffffffffffffffffff1681526020019081526020016000206040518060800160405290816000820160009054906101000a900473ffffffffffffffffffffffffffffffffffffffff1673ffffffffffffffffffffffffffffffffffffffff1673ffffffffffffffffffffffffffffffffffffffff1681526020016000820160149054906101000a900460ff166002811115610e7c57fe5b6002811115610e8757fe5b815260200160018201548152602001600282015481525050905033816000019073ffffffffffffffffffffffffffffffffffffffff16908173ffffffffffffffffffffffffffffffffffffffff1681525050600081602001906002811115610eeb57fe5b90816002811115610ef857fe5b8152505083816040018181525050828160600181815250506004816000015190806001815401808255809150509060018203906000526020600020016000909192909190916101000a81548173ffffffffffffffffffffffffffffffffffffffff021916908373ffffffffffffffffffffffffffffffffffffffff16021790555050600191505092915050565b60008060009054906101000a900473ffffffffffffffffffffffffffffffffffffffff1673ffffffffffffffffffffffffffffffffffffffff166386b8308d89898787878c8c6040518863ffffffff1660e01b8152600401808873ffffffffffffffffffffffffffffffffffffffff1673ffffffffffffffffffffffffffffffffffffffff1681526020018773ffffffffffffffffffffffffffffffffffffffff1673ffffffffffffffffffffffffffffffffffffffff168152602001868152602001858152602001848152602001838152602001828152602001975050505050505050602060405180830381600087803b15801561108357600080fd5b505af1158015611097573d6000803e3d6000fd5b505050506040513d60208110156110ad57600080fd5b810190808051906020019092919050505050979650505050505050565b604051806101400160405280600073ffffffffffffffffffffffffffffffffffffffff168152602001600081526020016000815260200160008152602001600081526020016000815260200160008152602001600081526020016000600281111561113157fe5b81526020016000600481111561114357fe5b81525090565b6040518060800160405280600073ffffffffffffffffffffffffffffffffffffffff1681526020016000600281111561117e57fe5b81526020016000815260200160008152509056fea265627a7a72315820cd37e8ed490dc987664626c8b9ec51c023a7326e06ac351c1347a59d292d48eb64736f6c63430005100032",
  "source": "//SPDX-License-Identifier: educationwithgyan42@gmail.com\npragma solidity >=0.4.22 <0.7.0;\nimport \"/Users/gyan/Documents/ProjectGyan/BabylonProject/FarmLend/contracts/LockLoan.sol\";\n\ncontract FarmLend {\n    LockLoan lockloan;\n    enum LoanState {\n        PROPOSAL,\n        ACCEPTED,\n        LOCKED,\n        SUCCESSFUL,\n        FAILED\n    }\n    \n    enum PaymentFreq{\n        ANNUAL,\n        HALFYEARLY,\n        SPLITNUM\n        \n    }\n    \n    enum LenderState {\n        ACTIVE,\n        INLOAN,\n        INACTIVE\n    }\n    \n    struct Lender {\n        address payable lenderAddress;\n        LenderState lenderState;\n        uint interestOffered;\n        uint depositAmount;\n        \n    }\n    \n    struct FarmerLoanProposal {\n        address payable farmerAddress;\n        uint amountRequested;\n        uint loanAmountFulfilled; //For now, let's keep it at 100%\n        uint maxInterestRate;\n        // uint startYear;\n        // uint startMonth;\n        // uint startDay;\n         uint dueDateYear;\n        uint dueDateMonth;\n        uint dueDateDay;\n        uint splitNum; //Number of installments that the loan should disbursed in\n        mapping(uint => uint) splitAmountStorage;\n        PaymentFreq paymentFreq;\n        LoanState loanState;\n        //Authentication documents\n        \n    }\n    \n    struct Loan {\n        FarmerLoanProposal farmerLoanProposal;\n        Lender lender;\n        LoanState state;\n        // uint startYear;\n        // uint startMonth;\n        // uint startDay;\n        uint amountFulfilled;\n        uint interestRate;\n        uint proposalCount;\n        uint collected;\n        uint dueDateYear;\n        uint dueDateMonth;\n        uint dueDateDay;\n        //bytes32 mortgage; Right now, we won't use any mortgage concept here\n        mapping (uint=>uint) proposal;\n    }\n    \n    constructor() public payable {\n        //Dynamically get once deployed on Truffle\n        lockloan = LockLoan(0xB117eAA9D7d94CC9E54a85F10c13c8cf34A52781);\n    }\n    \n    mapping(address => FarmerLoanProposal) public registeredProposals;\n    address[] public loanProposals;\n    \n    mapping(address => Lender) public registeredLenders;\n    address[] public lenderAccounts;\n    \n    //Register the farmers with loan requirements\n    function registerFarmerLoanProposal(uint _amountRequested, uint _dueDateDay, uint _dueDateMonth, uint _dueDateYear,\n    uint _maxInterestRate, uint _splitNum, uint _paymentFreq) public returns(bool){\n        FarmerLoanProposal memory farmer  = registeredProposals[msg.sender];\n        farmer.farmerAddress = msg.sender;\n        farmer.amountRequested = _amountRequested;\n        farmer.loanState = LoanState.PROPOSAL;\n        \n        // farmer.startDay = _startDay;\n        // farmer.startMonth = _startMonth;\n        // farmer.startYear = _startYear;\n        \n        farmer.dueDateDay = _dueDateDay;\n        farmer.dueDateMonth = _dueDateMonth;\n        farmer.dueDateYear = _dueDateYear;\n        \n        //This will be filled up once the loan is accepted by a Lender.\n        farmer.loanAmountFulfilled = 0;\n        \n        //Check if the farmer has specified any maxInterestRate, else default it to 5%\n        if(_maxInterestRate == 0)\n            farmer.maxInterestRate = 5;\n        else\n            farmer.maxInterestRate = _maxInterestRate;\n        \n        //Check if the farmer has specified any splitNumber, if not assign \n        // 3 as default number of times he would be paid in an year. \n        // This is the frequency in which the farmer would be paid in the year.\n        if(_splitNum == 0)\n            farmer.splitNum = 2;\n        else\n            farmer.splitNum = _splitNum;\n        \n        //This is the payment frequency in which the farmer will return the loan back.\n        if(_paymentFreq == 1)\n            farmer.paymentFreq = PaymentFreq.ANNUAL;\n        else if(_paymentFreq == 2)\n            farmer.paymentFreq = PaymentFreq.HALFYEARLY;\n        else\n            farmer.paymentFreq = PaymentFreq.SPLITNUM;\n        \n        loanProposals.push(farmer.farmerAddress);\n        \n        return true;\n        \n    }\n    \n    //Register the farmers with loan requirements\n    function registerLender(uint _interestRate, uint _depositAmount) public \n    returns(bool){\n        Lender memory lender = registeredLenders[msg.sender];\n        lender.lenderAddress = msg.sender;\n        lender.lenderState = LenderState.ACTIVE;\n        \n        //This will be entered by the Lender.\n        lender.interestOffered = _interestRate;\n        \n        lender.depositAmount = _depositAmount;\n        \n        lenderAccounts.push(lender.lenderAddress);\n        return true;\n    }\n    \n    //match function: Search for active proposals and match it with active lenders \n    //and share the matched details with the lender - Vinoth - TODO in JS\n    event Foundlender(address, uint); \n    //Function approve : Lender to approve the Loan - Gyan\n    function approveLoan(address _farmerAddress, bool approval, uint _amount) \n    public {\n        \n        //Before approval, we need to check if the farmer is in the system\n        // We would also be doing the asset creation in the backend before calling this function\n        FarmerLoanProposal memory farmer  = registeredProposals[_farmerAddress];\n        Lender memory lender = registeredLenders[msg.sender];\n\temit Foundlender(msg.sender, lender.depositAmount);\n        if(approval == true) {\n            farmer.loanState = LoanState.ACCEPTED;\n            lender.depositAmount = lender.depositAmount - _amount;\n            lender.lenderState = LenderState.INLOAN;\n            for(uint i = 0; i < loanProposals.length; i++){\n                if(loanProposals[i] == _farmerAddress)\n                    delete loanProposals[i];\n            }\n            //- Create the loan and call the lock contract\n            createLoan(_farmerAddress, msg.sender, _amount, \n            lender.interestOffered, farmer.dueDateDay, farmer.dueDateMonth, farmer.dueDateYear); \n        }\n        else\n            farmer.loanState = LoanState.PROPOSAL;\n    }\n    \n    function createLoan(address _borrower, address _lender, uint _amountRequested, \n            uint _interestRate, uint _dueDateDay, uint _dueDateMonth, \n            uint _dueDateYear) internal returns(bool){\n            \n            lockloan.lockLoan(_borrower, _lender, _dueDateDay, _dueDateMonth, _dueDateYear,\n             _amountRequested,  _interestRate);\n    }\n    //Get the number of proposals and then get the public mapping to walkthrough ACTIVE ones\n    function getNumProposals() public view returns(address[] memory) {\n        return loanProposals;\n    }\n\n\n}\n",
  "sourcePath": "/Users/gyan/Documents/ProjectGyan/BabylonProject/FarmLend/contracts/FarmLend.sol",
  "compiler": {
    "name": "solc",
    "version": "0.5.16+commit.9c3226ce.Emscripten.clang"
  },
  "schemaVersion": "3.3.0",
  "updatedAt": "2020-10-12T01:00:08.082Z",
  "devdoc": {
    "methods": {}
  },
  "userdoc": {
    "methods": {}
  }
}