{
  "contractName": "LockLoan",
  "abi": [
    {
      "inputs": [],
      "payable": true,
      "stateMutability": "payable",
      "type": "constructor"
    },
    {
      "constant": false,
      "inputs": [
        {
          "internalType": "address",
          "name": "_borrower",
          "type": "address"
        },
        {
          "internalType": "address",
          "name": "_lender",
          "type": "address"
        },
        {
          "internalType": "uint256",
          "name": "_endDate",
          "type": "uint256"
        },
        {
          "internalType": "uint256",
          "name": "_endMonth",
          "type": "uint256"
        },
        {
          "internalType": "uint256",
          "name": "_endYear",
          "type": "uint256"
        },
        {
          "internalType": "uint256",
          "name": "_amountLocked",
          "type": "uint256"
        },
        {
          "internalType": "uint256",
          "name": "_interestRate",
          "type": "uint256"
        }
      ],
      "name": "lockLoan",
      "outputs": [
        {
          "internalType": "bool",
          "name": "",
          "type": "bool"
        }
      ],
      "payable": true,
      "stateMutability": "payable",
      "type": "function"
    },
    {
      "constant": true,
      "inputs": [],
      "name": "getNumLockedLoanDetails",
      "outputs": [
        {
          "internalType": "uint256",
          "name": "",
          "type": "uint256"
        }
      ],
      "payable": false,
      "stateMutability": "view",
      "type": "function"
    },
    {
      "constant": false,
      "inputs": [
        {
          "internalType": "address",
          "name": "_borrower",
          "type": "address"
        },
        {
          "internalType": "string",
          "name": "_assetId",
          "type": "string"
        },
        {
          "internalType": "uint256",
          "name": "version",
          "type": "uint256"
        }
      ],
      "name": "addAssetsToLoan",
      "outputs": [
        {
          "internalType": "string",
          "name": "",
          "type": "string"
        }
      ],
      "payable": false,
      "stateMutability": "nonpayable",
      "type": "function"
    }
  ],
  "bytecode": "0x60806040526106d9806100136000396000f3fe6080604052600436106100345760003560e01c80634766d9a21461003957806386b8308d14610064578063b4407e3614610112575b600080fd5b34801561004557600080fd5b5061004e61027d565b6040518082815260200191505060405180910390f35b6100f8600480360360e081101561007a57600080fd5b81019080803573ffffffffffffffffffffffffffffffffffffffff169060200190929190803573ffffffffffffffffffffffffffffffffffffffff169060200190929190803590602001909291908035906020019092919080359060200190929190803590602001909291908035906020019092919050505061028a565b604051808215151515815260200191505060405180910390f35b34801561011e57600080fd5b506102026004803603606081101561013557600080fd5b81019080803573ffffffffffffffffffffffffffffffffffffffff1690602001909291908035906020019064010000000081111561017257600080fd5b82018360208201111561018457600080fd5b803590602001918460018302840111640100000000831117156101a657600080fd5b91908080601f016020809104026020016040519081016040528093929190818152602001838380828437600081840152601f19601f82011690508083019250505050505050919291929080359060200190929190505050610500565b6040518080602001828103825283818151815260200191508051906020019080838360005b83811015610242578082015181840152602081019050610227565b50505050905090810190601f16801561026f5780820380516001836020036101000a031916815260200191505b509250505060405180910390f35b6000600180549050905090565b6000610294610579565b6000808a73ffffffffffffffffffffffffffffffffffffffff1673ffffffffffffffffffffffffffffffffffffffff168152602001908152602001600020604051806101600160405290816000820160009054906101000a900473ffffffffffffffffffffffffffffffffffffffff1673ffffffffffffffffffffffffffffffffffffffff1673ffffffffffffffffffffffffffffffffffffffff1681526020016001820160009054906101000a900473ffffffffffffffffffffffffffffffffffffffff1673ffffffffffffffffffffffffffffffffffffffff1673ffffffffffffffffffffffffffffffffffffffff1681526020016002820154815260200160038201548152602001600482015481526020016005820154815260200160068201548152602001600782015481526020016008820154815260200160098201548152602001600a82015481525050905088816000019073ffffffffffffffffffffffffffffffffffffffff16908173ffffffffffffffffffffffffffffffffffffffff168152505087816020019073ffffffffffffffffffffffffffffffffffffffff16908173ffffffffffffffffffffffffffffffffffffffff1681525050868160a0018181525050858160c0018181525050848160e00181815250508381610100018181525050828161012001818152505060018990806001815401808255809150509060018203906000526020600020016000909192909190916101000a81548173ffffffffffffffffffffffffffffffffffffffff021916908373ffffffffffffffffffffffffffffffffffffffff160217905550506001915050979650505050505050565b606060008060008673ffffffffffffffffffffffffffffffffffffffff1673ffffffffffffffffffffffffffffffffffffffff16815260200190815260200160002090508381600b016000858152602001908152602001600020908051906020019061056d9291906105ff565b50839150509392505050565b604051806101600160405280600073ffffffffffffffffffffffffffffffffffffffff168152602001600073ffffffffffffffffffffffffffffffffffffffff1681526020016000815260200160008152602001600081526020016000815260200160008152602001600081526020016000815260200160008152602001600081525090565b828054600181600116156101000203166002900490600052602060002090601f016020900481019282601f1061064057805160ff191683800117855561066e565b8280016001018555821561066e579182015b8281111561066d578251825591602001919060010190610652565b5b50905061067b919061067f565b5090565b6106a191905b8082111561069d576000816000905550600101610685565b5090565b9056fea265627a7a72315820609ed140dc558f2d87999e5f1e9c729376e58098e157c2f68cb624296bfa42f164736f6c63430005100032",
  "source": "//SPDX-License-Identifier: educationwithgyan42@gmail.com\npragma solidity >=0.4.22 <0.7.0;\n\ncontract LockLoan {\n    \n    struct LoanDetails {\n        address borrower;\n        address lender;\n        uint startDate;\n        uint startMonth;\n        uint startYear;\n        uint endDate;\n        uint endMonth;\n        uint endYear;\n        uint amountLocked;\n        uint interestRate;\n        uint loanLockedTimeStamp;\n        mapping(uint => string) assetIds;\n    }\n    \n    constructor() public payable {\n\n    }\n    \n    mapping(address => LoanDetails) lockedLoans;\n    address[] lockedLoanDetails;\n    \n    function lockLoan(address _borrower, address _lender, uint _endDate, uint _endMonth, uint _endYear,\n    uint _amountLocked, uint _interestRate) external payable returns(bool){\n        LoanDetails memory loanDetails = lockedLoans[_borrower];\n        loanDetails.borrower = _borrower;\n        loanDetails.lender = _lender;\n        \n        //Recording the starting date details\n        // loanDetails.startDate = _startDate;\n        // loanDetails.startMonth = _startMonth;\n        // loanDetails.startYear = _startYear;\n        \n        //Recording the ending date details\n        loanDetails.endDate = _endDate;\n        loanDetails.endMonth = _endMonth;\n        loanDetails.endYear = _endYear;\n        \n        loanDetails.amountLocked = _amountLocked;\n        loanDetails.interestRate = _interestRate;\n        \n        lockedLoanDetails.push(_borrower);\n        return true;\n        \n    }\n    \n    function getNumLockedLoanDetails() public view returns(uint){\n        return lockedLoanDetails.length;\n    }\n    \n    function addAssetsToLoan(address _borrower, string memory _assetId, uint version) \n    public returns(string memory){\n        LoanDetails storage loanDetails = lockedLoans[_borrower];\n        loanDetails.assetIds[version] = _assetId;\n        return _assetId;\n        \n    }\n}",
  "sourcePath": "/Users/gyan/Documents/ProjectGyan/BabylonProject/FarmLend/contracts/LockLoan.sol",
  "compiler": {
    "name": "solc",
    "version": "0.5.16+commit.9c3226ce.Emscripten.clang"
  },
  "schemaVersion": "3.3.0",
  "updatedAt": "2020-10-12T00:59:27.323Z",
  "devdoc": {
    "methods": {}
  },
  "userdoc": {
    "methods": {}
  }
}